{
  "_format": "hh-sol-artifact-1",
  "contractName": "Erc721WhitelistDistributor",
  "sourceName": "contracts/Erc721WhitelistDistributor.sol",
  "abi": [
    {
      "inputs": [
        {
          "internalType": "address",
          "name": "token_",
          "type": "address"
        },
        {
          "internalType": "address[]",
          "name": "accounts",
          "type": "address[]"
        }
      ],
      "stateMutability": "nonpayable",
      "type": "constructor"
    },
    {
      "anonymous": false,
      "inputs": [
        {
          "indexed": false,
          "internalType": "address",
          "name": "account",
          "type": "address"
        }
      ],
      "name": "Claimed",
      "type": "event"
    },
    {
      "anonymous": false,
      "inputs": [
        {
          "indexed": true,
          "internalType": "address",
          "name": "previousOwner",
          "type": "address"
        },
        {
          "indexed": true,
          "internalType": "address",
          "name": "newOwner",
          "type": "address"
        }
      ],
      "name": "OwnershipTransferred",
      "type": "event"
    },
    {
      "inputs": [
        {
          "internalType": "address[]",
          "name": "accounts",
          "type": "address[]"
        }
      ],
      "name": "batchBlacklistAccounts",
      "outputs": [],
      "stateMutability": "nonpayable",
      "type": "function"
    },
    {
      "inputs": [
        {
          "internalType": "address[]",
          "name": "accounts",
          "type": "address[]"
        }
      ],
      "name": "batchWhitelistAccounts",
      "outputs": [],
      "stateMutability": "nonpayable",
      "type": "function"
    },
    {
      "inputs": [
        {
          "internalType": "address",
          "name": "account",
          "type": "address"
        }
      ],
      "name": "blacklistAccount",
      "outputs": [],
      "stateMutability": "nonpayable",
      "type": "function"
    },
    {
      "inputs": [
        {
          "internalType": "address",
          "name": "user",
          "type": "address"
        }
      ],
      "name": "canClaim",
      "outputs": [
        {
          "internalType": "bool",
          "name": "",
          "type": "bool"
        }
      ],
      "stateMutability": "view",
      "type": "function"
    },
    {
      "inputs": [],
      "name": "claim",
      "outputs": [],
      "stateMutability": "nonpayable",
      "type": "function"
    },
    {
      "inputs": [
        {
          "internalType": "address",
          "name": "",
          "type": "address"
        }
      ],
      "name": "claimed",
      "outputs": [
        {
          "internalType": "bool",
          "name": "",
          "type": "bool"
        }
      ],
      "stateMutability": "view",
      "type": "function"
    },
    {
      "inputs": [
        {
          "internalType": "address",
          "name": "user",
          "type": "address"
        }
      ],
      "name": "hasClaimed",
      "outputs": [
        {
          "internalType": "bool",
          "name": "",
          "type": "bool"
        }
      ],
      "stateMutability": "view",
      "type": "function"
    },
    {
      "inputs": [
        {
          "internalType": "address",
          "name": "",
          "type": "address"
        }
      ],
      "name": "minters",
      "outputs": [
        {
          "internalType": "bool",
          "name": "",
          "type": "bool"
        }
      ],
      "stateMutability": "view",
      "type": "function"
    },
    {
      "inputs": [],
      "name": "owner",
      "outputs": [
        {
          "internalType": "address",
          "name": "",
          "type": "address"
        }
      ],
      "stateMutability": "view",
      "type": "function"
    },
    {
      "inputs": [],
      "name": "renounceOwnership",
      "outputs": [],
      "stateMutability": "nonpayable",
      "type": "function"
    },
    {
      "inputs": [],
      "name": "token",
      "outputs": [
        {
          "internalType": "address",
          "name": "",
          "type": "address"
        }
      ],
      "stateMutability": "view",
      "type": "function"
    },
    {
      "inputs": [
        {
          "internalType": "address",
          "name": "newOwner",
          "type": "address"
        }
      ],
      "name": "transferOwnership",
      "outputs": [],
      "stateMutability": "nonpayable",
      "type": "function"
    },
    {
      "inputs": [
        {
          "internalType": "address",
          "name": "account",
          "type": "address"
        }
      ],
      "name": "whitelistAccount",
      "outputs": [],
      "stateMutability": "nonpayable",
      "type": "function"
    }
  ],
  "bytecode": "0x60a06040523480156200001157600080fd5b506040516200162f3803806200162f8339818101604052810190620000379190620002dd565b620000576200004b6200015860201b60201c565b6200016060201b60201c565b8173ffffffffffffffffffffffffffffffffffffffff1660808173ffffffffffffffffffffffffffffffffffffffff1660601b8152505060008151905060005b818110156200014e576001806000858481518110620000df577f4e487b7100000000000000000000000000000000000000000000000000000000600052603260045260246000fd5b602002602001015173ffffffffffffffffffffffffffffffffffffffff1673ffffffffffffffffffffffffffffffffffffffff16815260200190815260200160002060006101000a81548160ff0219169083151502179055508080620001459062000403565b91505062000097565b50505050620004da565b600033905090565b60008060009054906101000a900473ffffffffffffffffffffffffffffffffffffffff169050816000806101000a81548173ffffffffffffffffffffffffffffffffffffffff021916908373ffffffffffffffffffffffffffffffffffffffff1602179055508173ffffffffffffffffffffffffffffffffffffffff168173ffffffffffffffffffffffffffffffffffffffff167f8be0079c531659141344cd1fd0a4f28419497f9722a3daafe3b4186f6b6457e060405160405180910390a35050565b60006200023b620002358462000360565b62000337565b905080838252602082019050828560208602820111156200025b57600080fd5b60005b858110156200028f578162000274888262000299565b8452602084019350602083019250506001810190506200025e565b5050509392505050565b600081519050620002aa81620004c0565b92915050565b600082601f830112620002c257600080fd5b8151620002d484826020860162000224565b91505092915050565b60008060408385031215620002f157600080fd5b6000620003018582860162000299565b925050602083015167ffffffffffffffff8111156200031f57600080fd5b6200032d85828601620002b0565b9150509250929050565b60006200034362000356565b9050620003518282620003cd565b919050565b6000604051905090565b600067ffffffffffffffff8211156200037e576200037d62000480565b5b602082029050602081019050919050565b60006200039c82620003a3565b9050919050565b600073ffffffffffffffffffffffffffffffffffffffff82169050919050565b6000819050919050565b620003d882620004af565b810181811067ffffffffffffffff82111715620003fa57620003f962000480565b5b80604052505050565b60006200041082620003c3565b91507fffffffffffffffffffffffffffffffffffffffffffffffffffffffffffffffff82141562000446576200044562000451565b5b600182019050919050565b7f4e487b7100000000000000000000000000000000000000000000000000000000600052601160045260246000fd5b7f4e487b7100000000000000000000000000000000000000000000000000000000600052604160045260246000fd5b6000601f19601f8301169050919050565b620004cb816200038f565b8114620004d757600080fd5b50565b60805160601c61112f62000500600039600081816103f801526109d2015261112f6000f3fe608060405234801561001057600080fd5b50600436106100cf5760003560e01c8063bf3506c11161008c578063f2fde38b11610066578063f2fde38b146101ea578063f46eccc414610206578063fc0c546a14610236578063ffb59d3a14610254576100cf565b8063bf3506c11461016e578063c884ef831461019e578063d37b34d7146101ce576100cf565b80634e71d92d146100d457806363e0c2f8146100de578063715018a6146100fa57806373b2e80e1461010457806388bc7242146101345780638da5cb5b14610150575b600080fd5b6100dc610270565b005b6100f860048036038101906100f39190610c75565b6104c8565b005b61010261052a565b005b61011e60048036038101906101199190610c75565b61053e565b60405161012b9190610dcb565b60405180910390f35b61014e60048036038101906101499190610c9e565b610594565b005b610158610747565b6040516101659190610db0565b60405180910390f35b61018860048036038101906101839190610c75565b610770565b6040516101959190610dcb565b60405180910390f35b6101b860048036038101906101b39190610c75565b61081c565b6040516101c59190610dcb565b60405180910390f35b6101e860048036038101906101e39190610c75565b61083c565b005b61020460048036038101906101ff9190610c75565b61092c565b005b610220600480360381019061021b9190610c75565b6109b0565b60405161022d9190610dcb565b60405180910390f35b61023e6109d0565b60405161024b9190610db0565b60405180910390f35b61026e60048036038101906102699190610c9e565b6109f4565b005b6001600061027c610acc565b73ffffffffffffffffffffffffffffffffffffffff1673ffffffffffffffffffffffffffffffffffffffff16815260200190815260200160002060009054906101000a900460ff16610303576040517f08c379a00000000000000000000000000000000000000000000000000000000081526004016102fa90610de6565b60405180910390fd5b6002600061030f610acc565b73ffffffffffffffffffffffffffffffffffffffff1673ffffffffffffffffffffffffffffffffffffffff16815260200190815260200160002060009054906101000a900460ff1615610397576040517f08c379a000000000000000000000000000000000000000000000000000000000815260040161038e90610e46565b60405180910390fd5b6001600260006103a5610acc565b73ffffffffffffffffffffffffffffffffffffffff1673ffffffffffffffffffffffffffffffffffffffff16815260200190815260200160002060006101000a81548160ff0219169083151502179055507f000000000000000000000000000000000000000000000000000000000000000073ffffffffffffffffffffffffffffffffffffffff16636a62784261043a610acc565b6040518263ffffffff1660e01b81526004016104569190610db0565b600060405180830381600087803b15801561047057600080fd5b505af1158015610484573d6000803e3d6000fd5b505050507fb449c24d261a59627b537c8c41c57ab559f4205c56bea745ff61c5521bece2146104b1610acc565b6040516104be9190610db0565b60405180910390a1565b6104d0610ad4565b60018060008373ffffffffffffffffffffffffffffffffffffffff1673ffffffffffffffffffffffffffffffffffffffff16815260200190815260200160002060006101000a81548160ff02191690831515021790555050565b610532610ad4565b61053c6000610b52565b565b6000600260008373ffffffffffffffffffffffffffffffffffffffff1673ffffffffffffffffffffffffffffffffffffffff16815260200190815260200160002060009054906101000a900460ff169050919050565b61059c610ad4565b600082829050905060005b8181101561074157600260008585848181106105ec577f4e487b7100000000000000000000000000000000000000000000000000000000600052603260045260246000fd5b90506020020160208101906106019190610c75565b73ffffffffffffffffffffffffffffffffffffffff1673ffffffffffffffffffffffffffffffffffffffff16815260200190815260200160002060009054906101000a900460ff1615610689576040517f08c379a000000000000000000000000000000000000000000000000000000000815260040161068090610e26565b60405180910390fd5b6000600160008686858181106106c8577f4e487b7100000000000000000000000000000000000000000000000000000000600052603260045260246000fd5b90506020020160208101906106dd9190610c75565b73ffffffffffffffffffffffffffffffffffffffff1673ffffffffffffffffffffffffffffffffffffffff16815260200190815260200160002060006101000a81548160ff021916908315150217905550808061073990610edf565b9150506105a7565b50505050565b60008060009054906101000a900473ffffffffffffffffffffffffffffffffffffffff16905090565b6000600160008373ffffffffffffffffffffffffffffffffffffffff1673ffffffffffffffffffffffffffffffffffffffff16815260200190815260200160002060009054906101000a900460ff1680156108155750600260008373ffffffffffffffffffffffffffffffffffffffff1673ffffffffffffffffffffffffffffffffffffffff16815260200190815260200160002060009054906101000a900460ff16155b9050919050565b60026020528060005260406000206000915054906101000a900460ff1681565b610844610ad4565b600260008273ffffffffffffffffffffffffffffffffffffffff1673ffffffffffffffffffffffffffffffffffffffff16815260200190815260200160002060009054906101000a900460ff16156108d1576040517f08c379a00000000000000000000000000000000000000000000000000000000081526004016108c890610e46565b60405180910390fd5b6000600160008373ffffffffffffffffffffffffffffffffffffffff1673ffffffffffffffffffffffffffffffffffffffff16815260200190815260200160002060006101000a81548160ff02191690831515021790555050565b610934610ad4565b600073ffffffffffffffffffffffffffffffffffffffff168173ffffffffffffffffffffffffffffffffffffffff1614156109a4576040517f08c379a000000000000000000000000000000000000000000000000000000000815260040161099b90610e06565b60405180910390fd5b6109ad81610b52565b50565b60016020528060005260406000206000915054906101000a900460ff1681565b7f000000000000000000000000000000000000000000000000000000000000000081565b6109fc610ad4565b600082829050905060005b81811015610ac6576001806000868685818110610a4d577f4e487b7100000000000000000000000000000000000000000000000000000000600052603260045260246000fd5b9050602002016020810190610a629190610c75565b73ffffffffffffffffffffffffffffffffffffffff1673ffffffffffffffffffffffffffffffffffffffff16815260200190815260200160002060006101000a81548160ff0219169083151502179055508080610abe90610edf565b915050610a07565b50505050565b600033905090565b610adc610acc565b73ffffffffffffffffffffffffffffffffffffffff16610afa610747565b73ffffffffffffffffffffffffffffffffffffffff1614610b50576040517f08c379a0000000000000000000000000000000000000000000000000000000008152600401610b4790610e66565b60405180910390fd5b565b60008060009054906101000a900473ffffffffffffffffffffffffffffffffffffffff169050816000806101000a81548173ffffffffffffffffffffffffffffffffffffffff021916908373ffffffffffffffffffffffffffffffffffffffff1602179055508173ffffffffffffffffffffffffffffffffffffffff168173ffffffffffffffffffffffffffffffffffffffff167f8be0079c531659141344cd1fd0a4f28419497f9722a3daafe3b4186f6b6457e060405160405180910390a35050565b600081359050610c25816110e2565b92915050565b60008083601f840112610c3d57600080fd5b8235905067ffffffffffffffff811115610c5657600080fd5b602083019150836020820283011115610c6e57600080fd5b9250929050565b600060208284031215610c8757600080fd5b6000610c9584828501610c16565b91505092915050565b60008060208385031215610cb157600080fd5b600083013567ffffffffffffffff811115610ccb57600080fd5b610cd785828601610c2b565b92509250509250929050565b610cec81610e97565b82525050565b610cfb81610ea9565b82525050565b6000610d0e602a83610e86565b9150610d1982610f57565b604082019050919050565b6000610d31602683610e86565b9150610d3c82610fa6565b604082019050919050565b6000610d54604183610e86565b9150610d5f82610ff5565b606082019050919050565b6000610d77602b83610e86565b9150610d828261106a565b604082019050919050565b6000610d9a602083610e86565b9150610da5826110b9565b602082019050919050565b6000602082019050610dc56000830184610ce3565b92915050565b6000602082019050610de06000830184610cf2565b92915050565b60006020820190508181036000830152610dff81610d01565b9050919050565b60006020820190508181036000830152610e1f81610d24565b9050919050565b60006020820190508181036000830152610e3f81610d47565b9050919050565b60006020820190508181036000830152610e5f81610d6a565b9050919050565b60006020820190508181036000830152610e7f81610d8d565b9050919050565b600082825260208201905092915050565b6000610ea282610eb5565b9050919050565b60008115159050919050565b600073ffffffffffffffffffffffffffffffffffffffff82169050919050565b6000819050919050565b6000610eea82610ed5565b91507fffffffffffffffffffffffffffffffffffffffffffffffffffffffffffffffff821415610f1d57610f1c610f28565b5b600182019050919050565b7f4e487b7100000000000000000000000000000000000000000000000000000000600052601160045260246000fd5b7f57686974656c6973744469737472696275746f723a204e6f7420616c6c6f776560008201527f6420746f206d696e742e00000000000000000000000000000000000000000000602082015250565b7f4f776e61626c653a206e6577206f776e657220697320746865207a65726f206160008201527f6464726573730000000000000000000000000000000000000000000000000000602082015250565b7f57686974656c6973744469737472696275746f723a2044726f7020616c72656160008201527f647920636c61696d6564206279206f6e65206f6620746865206163636f756e7460208201527f7300000000000000000000000000000000000000000000000000000000000000604082015250565b7f57686974656c6973744469737472696275746f723a2044726f7020616c72656160008201527f647920636c61696d65642e000000000000000000000000000000000000000000602082015250565b7f4f776e61626c653a2063616c6c6572206973206e6f7420746865206f776e6572600082015250565b6110eb81610e97565b81146110f657600080fd5b5056fea264697066735822122030f7858206876057a841f82756f3d01d65dee2b5cd5357cb4fcce924445cbe6f64736f6c63430008010033",
  "linkReferences": {},
  "deployedLinkReferences": {}
}