{
  "_format": "hh-sol-artifact-1",
  "contractName": "SimpleFiLaunchNft",
  "sourceName": "contracts/SimpleFiLaunchNft.sol",
  "abi": [
    {
      "inputs": [
        {
          "internalType": "string",
          "name": "name",
          "type": "string"
        },
        {
          "internalType": "string",
          "name": "symbol",
          "type": "string"
        },
        {
          "internalType": "string",
          "name": "_baseTokenURI",
          "type": "string"
        }
      ],
      "stateMutability": "nonpayable",
      "type": "constructor"
    },
    {
      "anonymous": false,
      "inputs": [
        {
          "indexed": true,
          "internalType": "address",
          "name": "owner",
          "type": "address"
        },
        {
          "indexed": true,
          "internalType": "address",
          "name": "approved",
          "type": "address"
        },
        {
          "indexed": true,
          "internalType": "uint256",
          "name": "tokenId",
          "type": "uint256"
        }
      ],
      "name": "Approval",
      "type": "event"
    },
    {
      "anonymous": false,
      "inputs": [
        {
          "indexed": true,
          "internalType": "address",
          "name": "owner",
          "type": "address"
        },
        {
          "indexed": true,
          "internalType": "address",
          "name": "operator",
          "type": "address"
        },
        {
          "indexed": false,
          "internalType": "bool",
          "name": "approved",
          "type": "bool"
        }
      ],
      "name": "ApprovalForAll",
      "type": "event"
    },
    {
      "anonymous": false,
      "inputs": [
        {
          "indexed": true,
          "internalType": "bytes32",
          "name": "role",
          "type": "bytes32"
        },
        {
          "indexed": true,
          "internalType": "bytes32",
          "name": "previousAdminRole",
          "type": "bytes32"
        },
        {
          "indexed": true,
          "internalType": "bytes32",
          "name": "newAdminRole",
          "type": "bytes32"
        }
      ],
      "name": "RoleAdminChanged",
      "type": "event"
    },
    {
      "anonymous": false,
      "inputs": [
        {
          "indexed": true,
          "internalType": "bytes32",
          "name": "role",
          "type": "bytes32"
        },
        {
          "indexed": true,
          "internalType": "address",
          "name": "account",
          "type": "address"
        },
        {
          "indexed": true,
          "internalType": "address",
          "name": "sender",
          "type": "address"
        }
      ],
      "name": "RoleGranted",
      "type": "event"
    },
    {
      "anonymous": false,
      "inputs": [
        {
          "indexed": true,
          "internalType": "bytes32",
          "name": "role",
          "type": "bytes32"
        },
        {
          "indexed": true,
          "internalType": "address",
          "name": "account",
          "type": "address"
        },
        {
          "indexed": true,
          "internalType": "address",
          "name": "sender",
          "type": "address"
        }
      ],
      "name": "RoleRevoked",
      "type": "event"
    },
    {
      "anonymous": false,
      "inputs": [
        {
          "indexed": true,
          "internalType": "address",
          "name": "from",
          "type": "address"
        },
        {
          "indexed": true,
          "internalType": "address",
          "name": "to",
          "type": "address"
        },
        {
          "indexed": true,
          "internalType": "uint256",
          "name": "tokenId",
          "type": "uint256"
        }
      ],
      "name": "Transfer",
      "type": "event"
    },
    {
      "inputs": [],
      "name": "DEFAULT_ADMIN_ROLE",
      "outputs": [
        {
          "internalType": "bytes32",
          "name": "",
          "type": "bytes32"
        }
      ],
      "stateMutability": "view",
      "type": "function"
    },
    {
      "inputs": [],
      "name": "MINTER_ROLE",
      "outputs": [
        {
          "internalType": "bytes32",
          "name": "",
          "type": "bytes32"
        }
      ],
      "stateMutability": "view",
      "type": "function"
    },
    {
      "inputs": [
        {
          "internalType": "address",
          "name": "to",
          "type": "address"
        },
        {
          "internalType": "uint256",
          "name": "tokenId",
          "type": "uint256"
        }
      ],
      "name": "approve",
      "outputs": [],
      "stateMutability": "nonpayable",
      "type": "function"
    },
    {
      "inputs": [
        {
          "internalType": "address",
          "name": "owner",
          "type": "address"
        }
      ],
      "name": "balanceOf",
      "outputs": [
        {
          "internalType": "uint256",
          "name": "",
          "type": "uint256"
        }
      ],
      "stateMutability": "view",
      "type": "function"
    },
    {
      "inputs": [],
      "name": "baseTokenURI",
      "outputs": [
        {
          "internalType": "string",
          "name": "",
          "type": "string"
        }
      ],
      "stateMutability": "view",
      "type": "function"
    },
    {
      "inputs": [
        {
          "internalType": "uint256",
          "name": "tokenId",
          "type": "uint256"
        }
      ],
      "name": "getApproved",
      "outputs": [
        {
          "internalType": "address",
          "name": "",
          "type": "address"
        }
      ],
      "stateMutability": "view",
      "type": "function"
    },
    {
      "inputs": [
        {
          "internalType": "bytes32",
          "name": "role",
          "type": "bytes32"
        }
      ],
      "name": "getRoleAdmin",
      "outputs": [
        {
          "internalType": "bytes32",
          "name": "",
          "type": "bytes32"
        }
      ],
      "stateMutability": "view",
      "type": "function"
    },
    {
      "inputs": [
        {
          "internalType": "bytes32",
          "name": "role",
          "type": "bytes32"
        },
        {
          "internalType": "address",
          "name": "account",
          "type": "address"
        }
      ],
      "name": "grantRole",
      "outputs": [],
      "stateMutability": "nonpayable",
      "type": "function"
    },
    {
      "inputs": [
        {
          "internalType": "bytes32",
          "name": "role",
          "type": "bytes32"
        },
        {
          "internalType": "address",
          "name": "account",
          "type": "address"
        }
      ],
      "name": "hasRole",
      "outputs": [
        {
          "internalType": "bool",
          "name": "",
          "type": "bool"
        }
      ],
      "stateMutability": "view",
      "type": "function"
    },
    {
      "inputs": [
        {
          "internalType": "address",
          "name": "owner",
          "type": "address"
        },
        {
          "internalType": "address",
          "name": "operator",
          "type": "address"
        }
      ],
      "name": "isApprovedForAll",
      "outputs": [
        {
          "internalType": "bool",
          "name": "",
          "type": "bool"
        }
      ],
      "stateMutability": "view",
      "type": "function"
    },
    {
      "inputs": [
        {
          "internalType": "address",
          "name": "to",
          "type": "address"
        }
      ],
      "name": "mint",
      "outputs": [],
      "stateMutability": "nonpayable",
      "type": "function"
    },
    {
      "inputs": [],
      "name": "name",
      "outputs": [
        {
          "internalType": "string",
          "name": "",
          "type": "string"
        }
      ],
      "stateMutability": "view",
      "type": "function"
    },
    {
      "inputs": [
        {
          "internalType": "uint256",
          "name": "tokenId",
          "type": "uint256"
        }
      ],
      "name": "ownerOf",
      "outputs": [
        {
          "internalType": "address",
          "name": "",
          "type": "address"
        }
      ],
      "stateMutability": "view",
      "type": "function"
    },
    {
      "inputs": [
        {
          "internalType": "bytes32",
          "name": "role",
          "type": "bytes32"
        },
        {
          "internalType": "address",
          "name": "account",
          "type": "address"
        }
      ],
      "name": "renounceRole",
      "outputs": [],
      "stateMutability": "nonpayable",
      "type": "function"
    },
    {
      "inputs": [
        {
          "internalType": "bytes32",
          "name": "role",
          "type": "bytes32"
        },
        {
          "internalType": "address",
          "name": "account",
          "type": "address"
        }
      ],
      "name": "revokeRole",
      "outputs": [],
      "stateMutability": "nonpayable",
      "type": "function"
    },
    {
      "inputs": [
        {
          "internalType": "address",
          "name": "from",
          "type": "address"
        },
        {
          "internalType": "address",
          "name": "to",
          "type": "address"
        },
        {
          "internalType": "uint256",
          "name": "tokenId",
          "type": "uint256"
        }
      ],
      "name": "safeTransferFrom",
      "outputs": [],
      "stateMutability": "nonpayable",
      "type": "function"
    },
    {
      "inputs": [
        {
          "internalType": "address",
          "name": "from",
          "type": "address"
        },
        {
          "internalType": "address",
          "name": "to",
          "type": "address"
        },
        {
          "internalType": "uint256",
          "name": "tokenId",
          "type": "uint256"
        },
        {
          "internalType": "bytes",
          "name": "data",
          "type": "bytes"
        }
      ],
      "name": "safeTransferFrom",
      "outputs": [],
      "stateMutability": "nonpayable",
      "type": "function"
    },
    {
      "inputs": [
        {
          "internalType": "address",
          "name": "operator",
          "type": "address"
        },
        {
          "internalType": "bool",
          "name": "approved",
          "type": "bool"
        }
      ],
      "name": "setApprovalForAll",
      "outputs": [],
      "stateMutability": "nonpayable",
      "type": "function"
    },
    {
      "inputs": [
        {
          "internalType": "string",
          "name": "_baseTokenURI",
          "type": "string"
        }
      ],
      "name": "setBaseTokenURI",
      "outputs": [],
      "stateMutability": "nonpayable",
      "type": "function"
    },
    {
      "inputs": [
        {
          "internalType": "bytes4",
          "name": "interfaceId",
          "type": "bytes4"
        }
      ],
      "name": "supportsInterface",
      "outputs": [
        {
          "internalType": "bool",
          "name": "",
          "type": "bool"
        }
      ],
      "stateMutability": "view",
      "type": "function"
    },
    {
      "inputs": [],
      "name": "symbol",
      "outputs": [
        {
          "internalType": "string",
          "name": "",
          "type": "string"
        }
      ],
      "stateMutability": "view",
      "type": "function"
    },
    {
      "inputs": [
        {
          "internalType": "uint256",
          "name": "index",
          "type": "uint256"
        }
      ],
      "name": "tokenByIndex",
      "outputs": [
        {
          "internalType": "uint256",
          "name": "",
          "type": "uint256"
        }
      ],
      "stateMutability": "view",
      "type": "function"
    },
    {
      "inputs": [
        {
          "internalType": "address",
          "name": "owner",
          "type": "address"
        },
        {
          "internalType": "uint256",
          "name": "index",
          "type": "uint256"
        }
      ],
      "name": "tokenOfOwnerByIndex",
      "outputs": [
        {
          "internalType": "uint256",
          "name": "",
          "type": "uint256"
        }
      ],
      "stateMutability": "view",
      "type": "function"
    },
    {
      "inputs": [
        {
          "internalType": "uint256",
          "name": "tokenId",
          "type": "uint256"
        }
      ],
      "name": "tokenURI",
      "outputs": [
        {
          "internalType": "string",
          "name": "",
          "type": "string"
        }
      ],
      "stateMutability": "view",
      "type": "function"
    },
    {
      "inputs": [],
      "name": "totalSupply",
      "outputs": [
        {
          "internalType": "uint256",
          "name": "",
          "type": "uint256"
        }
      ],
      "stateMutability": "view",
      "type": "function"
    },
    {
      "inputs": [
        {
          "internalType": "address",
          "name": "from",
          "type": "address"
        },
        {
          "internalType": "address",
          "name": "to",
          "type": "address"
        },
        {
          "internalType": "uint256",
          "name": "tokenId",
          "type": "uint256"
        }
      ],
      "name": "transferFrom",
      "outputs": [],
      "stateMutability": "nonpayable",
      "type": "function"
    }
  ],
  "bytecode": "0x60806040523480156200001157600080fd5b50604051620041cf380380620041cf83398181016040528101906200003791906200035d565b82828160009080519060200190620000519291906200023b565b5080600190805190602001906200006a9291906200023b565b505050620000826000801b33620000d660201b60201c565b620000b47f9f2df0fed2c77648de5860a4cc508cd0818c85b8b8a1ab4ceeef8d981c8956a633620000d660201b60201c565b80600c9080519060200190620000cc9291906200023b565b505050506200056e565b620000e88282620001c860201b60201c565b620001c4576001600a600084815260200190815260200160002060000160008373ffffffffffffffffffffffffffffffffffffffff1673ffffffffffffffffffffffffffffffffffffffff16815260200190815260200160002060006101000a81548160ff021916908315150217905550620001696200023360201b60201c565b73ffffffffffffffffffffffffffffffffffffffff168173ffffffffffffffffffffffffffffffffffffffff16837f2f8788117e7eff1d82e926ec794901d17c78024a50270940304540a733656f0d60405160405180910390a45b5050565b6000600a600084815260200190815260200160002060000160008373ffffffffffffffffffffffffffffffffffffffff1673ffffffffffffffffffffffffffffffffffffffff16815260200190815260200160002060009054906101000a900460ff16905092915050565b600033905090565b828054620002499062000493565b90600052602060002090601f0160209004810192826200026d5760008555620002b9565b82601f106200028857805160ff1916838001178555620002b9565b82800160010185558215620002b9579182015b82811115620002b85782518255916020019190600101906200029b565b5b509050620002c89190620002cc565b5090565b5b80821115620002e7576000816000905550600101620002cd565b5090565b600062000302620002fc8462000427565b620003fe565b9050828152602081018484840111156200031b57600080fd5b620003288482856200045d565b509392505050565b600082601f8301126200034257600080fd5b815162000354848260208601620002eb565b91505092915050565b6000806000606084860312156200037357600080fd5b600084015167ffffffffffffffff8111156200038e57600080fd5b6200039c8682870162000330565b935050602084015167ffffffffffffffff811115620003ba57600080fd5b620003c88682870162000330565b925050604084015167ffffffffffffffff811115620003e657600080fd5b620003f48682870162000330565b9150509250925092565b60006200040a6200041d565b9050620004188282620004c9565b919050565b6000604051905090565b600067ffffffffffffffff8211156200044557620004446200052e565b5b62000450826200055d565b9050602081019050919050565b60005b838110156200047d57808201518184015260208101905062000460565b838111156200048d576000848401525b50505050565b60006002820490506001821680620004ac57607f821691505b60208210811415620004c357620004c2620004ff565b5b50919050565b620004d4826200055d565b810181811067ffffffffffffffff82111715620004f657620004f56200052e565b5b80604052505050565b7f4e487b7100000000000000000000000000000000000000000000000000000000600052602260045260246000fd5b7f4e487b7100000000000000000000000000000000000000000000000000000000600052604160045260246000fd5b6000601f19601f8301169050919050565b613c51806200057e6000396000f3fe608060405234801561001057600080fd5b506004361061018e5760003560e01c80636352211e116100de578063a22cb46511610097578063d539139311610071578063d5391393146104b7578063d547741f146104d5578063d547cfb7146104f1578063e985e9c51461050f5761018e565b8063a22cb4651461044f578063b88d4fde1461046b578063c87b56dd146104875761018e565b80636352211e146103675780636a6278421461039757806370a08231146103b357806391d14854146103e357806395d89b4114610413578063a217fddf146104315761018e565b8063248a9ca31161014b57806330176e131161012557806330176e13146102e357806336568abe146102ff57806342842e0e1461031b5780634f6ccce7146103375761018e565b8063248a9ca3146102675780632f2ff15d146102975780632f745c59146102b35761018e565b806301ffc9a71461019357806306fdde03146101c3578063081812fc146101e1578063095ea7b31461021157806318160ddd1461022d57806323b872dd1461024b575b600080fd5b6101ad60048036038101906101a89190612bfa565b61053f565b6040516101ba91906130ad565b60405180910390f35b6101cb610551565b6040516101d891906130e3565b60405180910390f35b6101fb60048036038101906101f69190612c8d565b6105e3565b6040516102089190613046565b60405180910390f35b61022b60048036038101906102269190612b59565b610629565b005b610235610741565b60405161024291906132e5565b60405180910390f35b61026560048036038101906102609190612a53565b61074e565b005b610281600480360381019061027c9190612b95565b6107ae565b60405161028e91906130c8565b60405180910390f35b6102b160048036038101906102ac9190612bbe565b6107ce565b005b6102cd60048036038101906102c89190612b59565b6107ef565b6040516102da91906132e5565b60405180910390f35b6102fd60048036038101906102f89190612c4c565b610894565b005b61031960048036038101906103149190612bbe565b6108bc565b005b61033560048036038101906103309190612a53565b61093f565b005b610351600480360381019061034c9190612c8d565b61095f565b60405161035e91906132e5565b60405180910390f35b610381600480360381019061037c9190612c8d565b6109f6565b60405161038e9190613046565b60405180910390f35b6103b160048036038101906103ac91906129ee565b610aa8565b005b6103cd60048036038101906103c891906129ee565b610af9565b6040516103da91906132e5565b60405180910390f35b6103fd60048036038101906103f89190612bbe565b610bb1565b60405161040a91906130ad565b60405180910390f35b61041b610c1c565b60405161042891906130e3565b60405180910390f35b610439610cae565b60405161044691906130c8565b60405180910390f35b61046960048036038101906104649190612b1d565b610cb5565b005b61048560048036038101906104809190612aa2565b610ccb565b005b6104a1600480360381019061049c9190612c8d565b610d2d565b6040516104ae91906130e3565b60405180910390f35b6104bf610d95565b6040516104cc91906130c8565b60405180910390f35b6104ef60048036038101906104ea9190612bbe565b610db9565b005b6104f9610dda565b60405161050691906130e3565b60405180910390f35b61052960048036038101906105249190612a17565b610e68565b60405161053691906130ad565b60405180910390f35b600061054a82610efc565b9050919050565b606060008054610560906135c9565b80601f016020809104026020016040519081016040528092919081815260200182805461058c906135c9565b80156105d95780601f106105ae576101008083540402835291602001916105d9565b820191906000526020600020905b8154815290600101906020018083116105bc57829003601f168201915b5050505050905090565b60006105ee82610f76565b6004600083815260200190815260200160002060009054906101000a900473ffffffffffffffffffffffffffffffffffffffff169050919050565b6000610634826109f6565b90508073ffffffffffffffffffffffffffffffffffffffff168373ffffffffffffffffffffffffffffffffffffffff1614156106a5576040517f08c379a000000000000000000000000000000000000000000000000000000000815260040161069c90613265565b60405180910390fd5b8073ffffffffffffffffffffffffffffffffffffffff166106c4610fc1565b73ffffffffffffffffffffffffffffffffffffffff1614806106f357506106f2816106ed610fc1565b610e68565b5b610732576040517f08c379a000000000000000000000000000000000000000000000000000000000815260040161072990613205565b60405180910390fd5b61073c8383610fc9565b505050565b6000600880549050905090565b61075f610759610fc1565b82611082565b61079e576040517f08c379a0000000000000000000000000000000000000000000000000000000008152600401610795906132a5565b60405180910390fd5b6107a9838383611117565b505050565b6000600a6000838152602001908152602001600020600101549050919050565b6107d7826107ae565b6107e08161137e565b6107ea8383611392565b505050565b60006107fa83610af9565b821061083b576040517f08c379a000000000000000000000000000000000000000000000000000000000815260040161083290613125565b60405180910390fd5b600660008473ffffffffffffffffffffffffffffffffffffffff1673ffffffffffffffffffffffffffffffffffffffff168152602001908152602001600020600083815260200190815260200160002054905092915050565b6000801b6108a18161137e565b81600c90805190602001906108b79291906127fd565b505050565b6108c4610fc1565b73ffffffffffffffffffffffffffffffffffffffff168173ffffffffffffffffffffffffffffffffffffffff1614610931576040517f08c379a0000000000000000000000000000000000000000000000000000000008152600401610928906132c5565b60405180910390fd5b61093b8282611473565b5050565b61095a83838360405180602001604052806000815250610ccb565b505050565b6000610969610741565b82106109aa576040517f08c379a00000000000000000000000000000000000000000000000000000000081526004016109a190613285565b60405180910390fd5b600882815481106109e4577f4e487b7100000000000000000000000000000000000000000000000000000000600052603260045260246000fd5b90600052602060002001549050919050565b6000806002600084815260200190815260200160002060009054906101000a900473ffffffffffffffffffffffffffffffffffffffff169050600073ffffffffffffffffffffffffffffffffffffffff168173ffffffffffffffffffffffffffffffffffffffff161415610a9f576040517f08c379a0000000000000000000000000000000000000000000000000000000008152600401610a9690613245565b60405180910390fd5b80915050919050565b7f9f2df0fed2c77648de5860a4cc508cd0818c85b8b8a1ab4ceeef8d981c8956a6610ad28161137e565b6000610ade600b611555565b9050610aea600b611563565b610af48382611579565b505050565b60008073ffffffffffffffffffffffffffffffffffffffff168273ffffffffffffffffffffffffffffffffffffffff161415610b6a576040517f08c379a0000000000000000000000000000000000000000000000000000000008152600401610b61906131e5565b60405180910390fd5b600360008373ffffffffffffffffffffffffffffffffffffffff1673ffffffffffffffffffffffffffffffffffffffff168152602001908152602001600020549050919050565b6000600a600084815260200190815260200160002060000160008373ffffffffffffffffffffffffffffffffffffffff1673ffffffffffffffffffffffffffffffffffffffff16815260200190815260200160002060009054906101000a900460ff16905092915050565b606060018054610c2b906135c9565b80601f0160208091040260200160405190810160405280929190818152602001828054610c57906135c9565b8015610ca45780601f10610c7957610100808354040283529160200191610ca4565b820191906000526020600020905b815481529060010190602001808311610c8757829003601f168201915b5050505050905090565b6000801b81565b610cc7610cc0610fc1565b8383611597565b5050565b610cdc610cd6610fc1565b83611082565b610d1b576040517f08c379a0000000000000000000000000000000000000000000000000000000008152600401610d12906132a5565b60405180910390fd5b610d2784848484611704565b50505050565b6060610d3882610f76565b6000610d42611760565b90506000815111610d625760405180602001604052806000815250610d8d565b80610d6c846117f2565b604051602001610d7d929190612fe8565b6040516020818303038152906040525b915050919050565b7f9f2df0fed2c77648de5860a4cc508cd0818c85b8b8a1ab4ceeef8d981c8956a681565b610dc2826107ae565b610dcb8161137e565b610dd58383611473565b505050565b600c8054610de7906135c9565b80601f0160208091040260200160405190810160405280929190818152602001828054610e13906135c9565b8015610e605780601f10610e3557610100808354040283529160200191610e60565b820191906000526020600020905b815481529060010190602001808311610e4357829003601f168201915b505050505081565b6000600560008473ffffffffffffffffffffffffffffffffffffffff1673ffffffffffffffffffffffffffffffffffffffff16815260200190815260200160002060008373ffffffffffffffffffffffffffffffffffffffff1673ffffffffffffffffffffffffffffffffffffffff16815260200190815260200160002060009054906101000a900460ff16905092915050565b60007f7965db0b000000000000000000000000000000000000000000000000000000007bffffffffffffffffffffffffffffffffffffffffffffffffffffffff1916827bffffffffffffffffffffffffffffffffffffffffffffffffffffffff19161480610f6f5750610f6e8261199f565b5b9050919050565b610f7f81611a19565b610fbe576040517f08c379a0000000000000000000000000000000000000000000000000000000008152600401610fb590613245565b60405180910390fd5b50565b600033905090565b816004600083815260200190815260200160002060006101000a81548173ffffffffffffffffffffffffffffffffffffffff021916908373ffffffffffffffffffffffffffffffffffffffff160217905550808273ffffffffffffffffffffffffffffffffffffffff1661103c836109f6565b73ffffffffffffffffffffffffffffffffffffffff167f8c5be1e5ebec7d5bd14f71427d1e84f3dd0314c0f7b2291e5b200ac8c7c3b92560405160405180910390a45050565b60008061108e836109f6565b90508073ffffffffffffffffffffffffffffffffffffffff168473ffffffffffffffffffffffffffffffffffffffff1614806110d057506110cf8185610e68565b5b8061110e57508373ffffffffffffffffffffffffffffffffffffffff166110f6846105e3565b73ffffffffffffffffffffffffffffffffffffffff16145b91505092915050565b8273ffffffffffffffffffffffffffffffffffffffff16611137826109f6565b73ffffffffffffffffffffffffffffffffffffffff161461118d576040517f08c379a000000000000000000000000000000000000000000000000000000000815260040161118490613165565b60405180910390fd5b600073ffffffffffffffffffffffffffffffffffffffff168273ffffffffffffffffffffffffffffffffffffffff1614156111fd576040517f08c379a00000000000000000000000000000000000000000000000000000000081526004016111f4906131a5565b60405180910390fd5b611208838383611a85565b611213600082610fc9565b6001600360008573ffffffffffffffffffffffffffffffffffffffff1673ffffffffffffffffffffffffffffffffffffffff168152602001908152602001600020600082825461126391906134ab565b925050819055506001600360008473ffffffffffffffffffffffffffffffffffffffff1673ffffffffffffffffffffffffffffffffffffffff16815260200190815260200160002060008282546112ba91906133ca565b92505081905550816002600083815260200190815260200160002060006101000a81548173ffffffffffffffffffffffffffffffffffffffff021916908373ffffffffffffffffffffffffffffffffffffffff160217905550808273ffffffffffffffffffffffffffffffffffffffff168473ffffffffffffffffffffffffffffffffffffffff167fddf252ad1be2c89b69c2b068fc378daa952ba7f163c4a11628f55a4df523b3ef60405160405180910390a4611379838383611a95565b505050565b61138f8161138a610fc1565b611a9a565b50565b61139c8282610bb1565b61146f576001600a600084815260200190815260200160002060000160008373ffffffffffffffffffffffffffffffffffffffff1673ffffffffffffffffffffffffffffffffffffffff16815260200190815260200160002060006101000a81548160ff021916908315150217905550611414610fc1565b73ffffffffffffffffffffffffffffffffffffffff168173ffffffffffffffffffffffffffffffffffffffff16837f2f8788117e7eff1d82e926ec794901d17c78024a50270940304540a733656f0d60405160405180910390a45b5050565b61147d8282610bb1565b15611551576000600a600084815260200190815260200160002060000160008373ffffffffffffffffffffffffffffffffffffffff1673ffffffffffffffffffffffffffffffffffffffff16815260200190815260200160002060006101000a81548160ff0219169083151502179055506114f6610fc1565b73ffffffffffffffffffffffffffffffffffffffff168173ffffffffffffffffffffffffffffffffffffffff16837ff6391f5c32d9c69d2a47ea670b442974b53935d1edc7fd64eb21e047a839171b60405160405180910390a45b5050565b600081600001549050919050565b6001816000016000828254019250508190555050565b611593828260405180602001604052806000815250611b37565b5050565b8173ffffffffffffffffffffffffffffffffffffffff168373ffffffffffffffffffffffffffffffffffffffff161415611606576040517f08c379a00000000000000000000000000000000000000000000000000000000081526004016115fd906131c5565b60405180910390fd5b80600560008573ffffffffffffffffffffffffffffffffffffffff1673ffffffffffffffffffffffffffffffffffffffff16815260200190815260200160002060008473ffffffffffffffffffffffffffffffffffffffff1673ffffffffffffffffffffffffffffffffffffffff16815260200190815260200160002060006101000a81548160ff0219169083151502179055508173ffffffffffffffffffffffffffffffffffffffff168373ffffffffffffffffffffffffffffffffffffffff167f17307eab39ab6107e8899845ad3d59bd9653f200f220920489ca2b5937696c31836040516116f791906130ad565b60405180910390a3505050565b61170f848484611117565b61171b84848484611b92565b61175a576040517f08c379a000000000000000000000000000000000000000000000000000000000815260040161175190613145565b60405180910390fd5b50505050565b6060600c805461176f906135c9565b80601f016020809104026020016040519081016040528092919081815260200182805461179b906135c9565b80156117e85780601f106117bd576101008083540402835291602001916117e8565b820191906000526020600020905b8154815290600101906020018083116117cb57829003601f168201915b5050505050905090565b6060600082141561183a576040518060400160405280600181526020017f3000000000000000000000000000000000000000000000000000000000000000815250905061199a565b600082905060005b6000821461186c5780806118559061362c565b915050600a826118659190613420565b9150611842565b60008167ffffffffffffffff8111156118ae577f4e487b7100000000000000000000000000000000000000000000000000000000600052604160045260246000fd5b6040519080825280601f01601f1916602001820160405280156118e05781602001600182028036833780820191505090505b5090505b60008514611993576001826118f991906134ab565b9150600a856119089190613675565b603061191491906133ca565b60f81b818381518110611950577f4e487b7100000000000000000000000000000000000000000000000000000000600052603260045260246000fd5b60200101907effffffffffffffffffffffffffffffffffffffffffffffffffffffffffffff1916908160001a905350600a8561198c9190613420565b94506118e4565b8093505050505b919050565b60007f780e9d63000000000000000000000000000000000000000000000000000000007bffffffffffffffffffffffffffffffffffffffffffffffffffffffff1916827bffffffffffffffffffffffffffffffffffffffffffffffffffffffff19161480611a125750611a1182611d29565b5b9050919050565b60008073ffffffffffffffffffffffffffffffffffffffff166002600084815260200190815260200160002060009054906101000a900473ffffffffffffffffffffffffffffffffffffffff1673ffffffffffffffffffffffffffffffffffffffff1614159050919050565b611a90838383611e0b565b505050565b505050565b611aa48282610bb1565b611b3357611ac98173ffffffffffffffffffffffffffffffffffffffff166014611f1f565b611ad78360001c6020611f1f565b604051602001611ae892919061300c565b6040516020818303038152906040526040517f08c379a0000000000000000000000000000000000000000000000000000000008152600401611b2a91906130e3565b60405180910390fd5b5050565b611b418383612219565b611b4e6000848484611b92565b611b8d576040517f08c379a0000000000000000000000000000000000000000000000000000000008152600401611b8490613145565b60405180910390fd5b505050565b6000611bb38473ffffffffffffffffffffffffffffffffffffffff166123f3565b15611d1c578373ffffffffffffffffffffffffffffffffffffffff1663150b7a02611bdc610fc1565b8786866040518563ffffffff1660e01b8152600401611bfe9493929190613061565b602060405180830381600087803b158015611c1857600080fd5b505af1925050508015611c4957506040513d601f19601f82011682018060405250810190611c469190612c23565b60015b611ccc573d8060008114611c79576040519150601f19603f3d011682016040523d82523d6000602084013e611c7e565b606091505b50600081511415611cc4576040517f08c379a0000000000000000000000000000000000000000000000000000000008152600401611cbb90613145565b60405180910390fd5b805181602001fd5b63150b7a0260e01b7bffffffffffffffffffffffffffffffffffffffffffffffffffffffff1916817bffffffffffffffffffffffffffffffffffffffffffffffffffffffff191614915050611d21565b600190505b949350505050565b60007f80ac58cd000000000000000000000000000000000000000000000000000000007bffffffffffffffffffffffffffffffffffffffffffffffffffffffff1916827bffffffffffffffffffffffffffffffffffffffffffffffffffffffff19161480611df457507f5b5e139f000000000000000000000000000000000000000000000000000000007bffffffffffffffffffffffffffffffffffffffffffffffffffffffff1916827bffffffffffffffffffffffffffffffffffffffffffffffffffffffff1916145b80611e045750611e0382612416565b5b9050919050565b611e16838383612480565b600073ffffffffffffffffffffffffffffffffffffffff168373ffffffffffffffffffffffffffffffffffffffff161415611e5957611e5481612485565b611e98565b8173ffffffffffffffffffffffffffffffffffffffff168373ffffffffffffffffffffffffffffffffffffffff1614611e9757611e9683826124ce565b5b5b600073ffffffffffffffffffffffffffffffffffffffff168273ffffffffffffffffffffffffffffffffffffffff161415611edb57611ed68161263b565b611f1a565b8273ffffffffffffffffffffffffffffffffffffffff168273ffffffffffffffffffffffffffffffffffffffff1614611f1957611f18828261277e565b5b5b505050565b606060006002836002611f329190613451565b611f3c91906133ca565b67ffffffffffffffff811115611f7b577f4e487b7100000000000000000000000000000000000000000000000000000000600052604160045260246000fd5b6040519080825280601f01601f191660200182016040528015611fad5781602001600182028036833780820191505090505b5090507f30000000000000000000000000000000000000000000000000000000000000008160008151811061200b577f4e487b7100000000000000000000000000000000000000000000000000000000600052603260045260246000fd5b60200101907effffffffffffffffffffffffffffffffffffffffffffffffffffffffffffff1916908160001a9053507f780000000000000000000000000000000000000000000000000000000000000081600181518110612095577f4e487b7100000000000000000000000000000000000000000000000000000000600052603260045260246000fd5b60200101907effffffffffffffffffffffffffffffffffffffffffffffffffffffffffffff1916908160001a905350600060018460026120d59190613451565b6120df91906133ca565b90505b60018111156121cb577f3031323334353637383961626364656600000000000000000000000000000000600f861660108110612147577f4e487b7100000000000000000000000000000000000000000000000000000000600052603260045260246000fd5b1a60f81b828281518110612184577f4e487b7100000000000000000000000000000000000000000000000000000000600052603260045260246000fd5b60200101907effffffffffffffffffffffffffffffffffffffffffffffffffffffffffffff1916908160001a905350600485901c9450806121c49061359f565b90506120e2565b506000841461220f576040517f08c379a000000000000000000000000000000000000000000000000000000000815260040161220690613105565b60405180910390fd5b8091505092915050565b600073ffffffffffffffffffffffffffffffffffffffff168273ffffffffffffffffffffffffffffffffffffffff161415612289576040517f08c379a000000000000000000000000000000000000000000000000000000000815260040161228090613225565b60405180910390fd5b61229281611a19565b156122d2576040517f08c379a00000000000000000000000000000000000000000000000000000000081526004016122c990613185565b60405180910390fd5b6122de60008383611a85565b6001600360008473ffffffffffffffffffffffffffffffffffffffff1673ffffffffffffffffffffffffffffffffffffffff168152602001908152602001600020600082825461232e91906133ca565b92505081905550816002600083815260200190815260200160002060006101000a81548173ffffffffffffffffffffffffffffffffffffffff021916908373ffffffffffffffffffffffffffffffffffffffff160217905550808273ffffffffffffffffffffffffffffffffffffffff16600073ffffffffffffffffffffffffffffffffffffffff167fddf252ad1be2c89b69c2b068fc378daa952ba7f163c4a11628f55a4df523b3ef60405160405180910390a46123ef60008383611a95565b5050565b6000808273ffffffffffffffffffffffffffffffffffffffff163b119050919050565b60007f01ffc9a7000000000000000000000000000000000000000000000000000000007bffffffffffffffffffffffffffffffffffffffffffffffffffffffff1916827bffffffffffffffffffffffffffffffffffffffffffffffffffffffff1916149050919050565b505050565b6008805490506009600083815260200190815260200160002081905550600881908060018154018082558091505060019003906000526020600020016000909190919091505550565b600060016124db84610af9565b6124e591906134ab565b90506000600760008481526020019081526020016000205490508181146125ca576000600660008673ffffffffffffffffffffffffffffffffffffffff1673ffffffffffffffffffffffffffffffffffffffff168152602001908152602001600020600084815260200190815260200160002054905080600660008773ffffffffffffffffffffffffffffffffffffffff1673ffffffffffffffffffffffffffffffffffffffff168152602001908152602001600020600084815260200190815260200160002081905550816007600083815260200190815260200160002081905550505b6007600084815260200190815260200160002060009055600660008573ffffffffffffffffffffffffffffffffffffffff1673ffffffffffffffffffffffffffffffffffffffff16815260200190815260200160002060008381526020019081526020016000206000905550505050565b6000600160088054905061264f91906134ab565b90506000600960008481526020019081526020016000205490506000600883815481106126a5577f4e487b7100000000000000000000000000000000000000000000000000000000600052603260045260246000fd5b9060005260206000200154905080600883815481106126ed577f4e487b7100000000000000000000000000000000000000000000000000000000600052603260045260246000fd5b906000526020600020018190555081600960008381526020019081526020016000208190555060096000858152602001908152602001600020600090556008805480612762577f4e487b7100000000000000000000000000000000000000000000000000000000600052603160045260246000fd5b6001900381819060005260206000200160009055905550505050565b600061278983610af9565b905081600660008573ffffffffffffffffffffffffffffffffffffffff1673ffffffffffffffffffffffffffffffffffffffff168152602001908152602001600020600083815260200190815260200160002081905550806007600084815260200190815260200160002081905550505050565b828054612809906135c9565b90600052602060002090601f01602090048101928261282b5760008555612872565b82601f1061284457805160ff1916838001178555612872565b82800160010185558215612872579182015b82811115612871578251825591602001919060010190612856565b5b50905061287f9190612883565b5090565b5b8082111561289c576000816000905550600101612884565b5090565b60006128b36128ae84613325565b613300565b9050828152602081018484840111156128cb57600080fd5b6128d684828561355d565b509392505050565b60006128f16128ec84613356565b613300565b90508281526020810184848401111561290957600080fd5b61291484828561355d565b509392505050565b60008135905061292b81613ba8565b92915050565b60008135905061294081613bbf565b92915050565b60008135905061295581613bd6565b92915050565b60008135905061296a81613bed565b92915050565b60008151905061297f81613bed565b92915050565b600082601f83011261299657600080fd5b81356129a68482602086016128a0565b91505092915050565b600082601f8301126129c057600080fd5b81356129d08482602086016128de565b91505092915050565b6000813590506129e881613c04565b92915050565b600060208284031215612a0057600080fd5b6000612a0e8482850161291c565b91505092915050565b60008060408385031215612a2a57600080fd5b6000612a388582860161291c565b9250506020612a498582860161291c565b9150509250929050565b600080600060608486031215612a6857600080fd5b6000612a768682870161291c565b9350506020612a878682870161291c565b9250506040612a98868287016129d9565b9150509250925092565b60008060008060808587031215612ab857600080fd5b6000612ac68782880161291c565b9450506020612ad78782880161291c565b9350506040612ae8878288016129d9565b925050606085013567ffffffffffffffff811115612b0557600080fd5b612b1187828801612985565b91505092959194509250565b60008060408385031215612b3057600080fd5b6000612b3e8582860161291c565b9250506020612b4f85828601612931565b9150509250929050565b60008060408385031215612b6c57600080fd5b6000612b7a8582860161291c565b9250506020612b8b858286016129d9565b9150509250929050565b600060208284031215612ba757600080fd5b6000612bb584828501612946565b91505092915050565b60008060408385031215612bd157600080fd5b6000612bdf85828601612946565b9250506020612bf08582860161291c565b9150509250929050565b600060208284031215612c0c57600080fd5b6000612c1a8482850161295b565b91505092915050565b600060208284031215612c3557600080fd5b6000612c4384828501612970565b91505092915050565b600060208284031215612c5e57600080fd5b600082013567ffffffffffffffff811115612c7857600080fd5b612c84848285016129af565b91505092915050565b600060208284031215612c9f57600080fd5b6000612cad848285016129d9565b91505092915050565b612cbf816134df565b82525050565b612cce816134f1565b82525050565b612cdd816134fd565b82525050565b6000612cee82613387565b612cf8818561339d565b9350612d0881856020860161356c565b612d1181613762565b840191505092915050565b6000612d2782613392565b612d3181856133ae565b9350612d4181856020860161356c565b612d4a81613762565b840191505092915050565b6000612d6082613392565b612d6a81856133bf565b9350612d7a81856020860161356c565b80840191505092915050565b6000612d936020836133ae565b9150612d9e82613773565b602082019050919050565b6000612db6602b836133ae565b9150612dc18261379c565b604082019050919050565b6000612dd96032836133ae565b9150612de4826137eb565b604082019050919050565b6000612dfc6025836133ae565b9150612e078261383a565b604082019050919050565b6000612e1f601c836133ae565b9150612e2a82613889565b602082019050919050565b6000612e426024836133ae565b9150612e4d826138b2565b604082019050919050565b6000612e656019836133ae565b9150612e7082613901565b602082019050919050565b6000612e886029836133ae565b9150612e938261392a565b604082019050919050565b6000612eab603e836133ae565b9150612eb682613979565b604082019050919050565b6000612ece6020836133ae565b9150612ed9826139c8565b602082019050919050565b6000612ef16018836133ae565b9150612efc826139f1565b602082019050919050565b6000612f146021836133ae565b9150612f1f82613a1a565b604082019050919050565b6000612f37602c836133ae565b9150612f4282613a69565b604082019050919050565b6000612f5a6017836133bf565b9150612f6582613ab8565b601782019050919050565b6000612f7d602e836133ae565b9150612f8882613ae1565b604082019050919050565b6000612fa06011836133bf565b9150612fab82613b30565b601182019050919050565b6000612fc3602f836133ae565b9150612fce82613b59565b604082019050919050565b612fe281613553565b82525050565b6000612ff48285612d55565b91506130008284612d55565b91508190509392505050565b600061301782612f4d565b91506130238285612d55565b915061302e82612f93565b915061303a8284612d55565b91508190509392505050565b600060208201905061305b6000830184612cb6565b92915050565b60006080820190506130766000830187612cb6565b6130836020830186612cb6565b6130906040830185612fd9565b81810360608301526130a28184612ce3565b905095945050505050565b60006020820190506130c26000830184612cc5565b92915050565b60006020820190506130dd6000830184612cd4565b92915050565b600060208201905081810360008301526130fd8184612d1c565b905092915050565b6000602082019050818103600083015261311e81612d86565b9050919050565b6000602082019050818103600083015261313e81612da9565b9050919050565b6000602082019050818103600083015261315e81612dcc565b9050919050565b6000602082019050818103600083015261317e81612def565b9050919050565b6000602082019050818103600083015261319e81612e12565b9050919050565b600060208201905081810360008301526131be81612e35565b9050919050565b600060208201905081810360008301526131de81612e58565b9050919050565b600060208201905081810360008301526131fe81612e7b565b9050919050565b6000602082019050818103600083015261321e81612e9e565b9050919050565b6000602082019050818103600083015261323e81612ec1565b9050919050565b6000602082019050818103600083015261325e81612ee4565b9050919050565b6000602082019050818103600083015261327e81612f07565b9050919050565b6000602082019050818103600083015261329e81612f2a565b9050919050565b600060208201905081810360008301526132be81612f70565b9050919050565b600060208201905081810360008301526132de81612fb6565b9050919050565b60006020820190506132fa6000830184612fd9565b92915050565b600061330a61331b565b905061331682826135fb565b919050565b6000604051905090565b600067ffffffffffffffff8211156133405761333f613733565b5b61334982613762565b9050602081019050919050565b600067ffffffffffffffff82111561337157613370613733565b5b61337a82613762565b9050602081019050919050565b600081519050919050565b600081519050919050565b600082825260208201905092915050565b600082825260208201905092915050565b600081905092915050565b60006133d582613553565b91506133e083613553565b9250827fffffffffffffffffffffffffffffffffffffffffffffffffffffffffffffffff03821115613415576134146136a6565b5b828201905092915050565b600061342b82613553565b915061343683613553565b925082613446576134456136d5565b5b828204905092915050565b600061345c82613553565b915061346783613553565b9250817fffffffffffffffffffffffffffffffffffffffffffffffffffffffffffffffff04831182151516156134a05761349f6136a6565b5b828202905092915050565b60006134b682613553565b91506134c183613553565b9250828210156134d4576134d36136a6565b5b828203905092915050565b60006134ea82613533565b9050919050565b60008115159050919050565b6000819050919050565b60007fffffffff0000000000000000000000000000000000000000000000000000000082169050919050565b600073ffffffffffffffffffffffffffffffffffffffff82169050919050565b6000819050919050565b82818337600083830152505050565b60005b8381101561358a57808201518184015260208101905061356f565b83811115613599576000848401525b50505050565b60006135aa82613553565b915060008214156135be576135bd6136a6565b5b600182039050919050565b600060028204905060018216806135e157607f821691505b602082108114156135f5576135f4613704565b5b50919050565b61360482613762565b810181811067ffffffffffffffff8211171561362357613622613733565b5b80604052505050565b600061363782613553565b91507fffffffffffffffffffffffffffffffffffffffffffffffffffffffffffffffff82141561366a576136696136a6565b5b600182019050919050565b600061368082613553565b915061368b83613553565b92508261369b5761369a6136d5565b5b828206905092915050565b7f4e487b7100000000000000000000000000000000000000000000000000000000600052601160045260246000fd5b7f4e487b7100000000000000000000000000000000000000000000000000000000600052601260045260246000fd5b7f4e487b7100000000000000000000000000000000000000000000000000000000600052602260045260246000fd5b7f4e487b7100000000000000000000000000000000000000000000000000000000600052604160045260246000fd5b6000601f19601f8301169050919050565b7f537472696e67733a20686578206c656e67746820696e73756666696369656e74600082015250565b7f455243373231456e756d657261626c653a206f776e657220696e646578206f7560008201527f74206f6620626f756e6473000000000000000000000000000000000000000000602082015250565b7f4552433732313a207472616e7366657220746f206e6f6e20455243373231526560008201527f63656976657220696d706c656d656e7465720000000000000000000000000000602082015250565b7f4552433732313a207472616e736665722066726f6d20696e636f72726563742060008201527f6f776e6572000000000000000000000000000000000000000000000000000000602082015250565b7f4552433732313a20746f6b656e20616c7265616479206d696e74656400000000600082015250565b7f4552433732313a207472616e7366657220746f20746865207a65726f2061646460008201527f7265737300000000000000000000000000000000000000000000000000000000602082015250565b7f4552433732313a20617070726f766520746f2063616c6c657200000000000000600082015250565b7f4552433732313a2061646472657373207a65726f206973206e6f74206120766160008201527f6c6964206f776e65720000000000000000000000000000000000000000000000602082015250565b7f4552433732313a20617070726f76652063616c6c6572206973206e6f7420746f60008201527f6b656e206f776e6572206e6f7220617070726f76656420666f7220616c6c0000602082015250565b7f4552433732313a206d696e7420746f20746865207a65726f2061646472657373600082015250565b7f4552433732313a20696e76616c696420746f6b656e2049440000000000000000600082015250565b7f4552433732313a20617070726f76616c20746f2063757272656e74206f776e6560008201527f7200000000000000000000000000000000000000000000000000000000000000602082015250565b7f455243373231456e756d657261626c653a20676c6f62616c20696e646578206f60008201527f7574206f6620626f756e64730000000000000000000000000000000000000000602082015250565b7f416363657373436f6e74726f6c3a206163636f756e7420000000000000000000600082015250565b7f4552433732313a2063616c6c6572206973206e6f7420746f6b656e206f776e6560008201527f72206e6f7220617070726f766564000000000000000000000000000000000000602082015250565b7f206973206d697373696e6720726f6c6520000000000000000000000000000000600082015250565b7f416363657373436f6e74726f6c3a2063616e206f6e6c792072656e6f756e636560008201527f20726f6c657320666f722073656c660000000000000000000000000000000000602082015250565b613bb1816134df565b8114613bbc57600080fd5b50565b613bc8816134f1565b8114613bd357600080fd5b50565b613bdf816134fd565b8114613bea57600080fd5b50565b613bf681613507565b8114613c0157600080fd5b50565b613c0d81613553565b8114613c1857600080fd5b5056fea26469706673582212208d3cce3cc9e4bc4981f3c58264412b8cdff6eb4203dd6febc3ec34bcef3f41d964736f6c63430008010033",
  "linkReferences": {},
  "deployedLinkReferences": {}
}